:1000000012C019C018C017C016C015C014C013C044
:1000100012C011C010C00FC00EC00DC00CC00BC06C
:100020000AC009C008C011241FBECFE5D4E0DEBF5E
:10003000CDBF02D025C0E4CF17BA8FEF81BB81E0DE
:1000400084BB8FE396E02BE53FE446E656B35F3092
:1000500019F415BA42BBFACF56B35F3119F415BA89
:1000600032BBF4CF56B35F3319F415BA22BBEECFCF
:1000700056B315BA5F3711F492BBE8CF82BBE6CF17
:04008000F894FFCF22
:00000001FF
